{
  "contractName": "NFTokenMetadataBaseUriMock",
  "abi": [
    {
      "inputs": [
        {
          "internalType": "string",
          "name": "_name",
          "type": "string"
        },
        {
          "internalType": "string",
          "name": "_symbol",
          "type": "string"
        },
        {
          "internalType": "string",
          "name": "_baseURI",
          "type": "string"
        }
      ],
      "stateMutability": "nonpayable",
      "type": "constructor"
    },
    {
      "anonymous": false,
      "inputs": [
        {
          "indexed": true,
          "internalType": "address",
          "name": "_owner",
          "type": "address"
        },
        {
          "indexed": true,
          "internalType": "address",
          "name": "_approved",
          "type": "address"
        },
        {
          "indexed": true,
          "internalType": "uint256",
          "name": "_tokenId",
          "type": "uint256"
        }
      ],
      "name": "Approval",
      "type": "event"
    },
    {
      "anonymous": false,
      "inputs": [
        {
          "indexed": true,
          "internalType": "address",
          "name": "_owner",
          "type": "address"
        },
        {
          "indexed": true,
          "internalType": "address",
          "name": "_operator",
          "type": "address"
        },
        {
          "indexed": false,
          "internalType": "bool",
          "name": "_approved",
          "type": "bool"
        }
      ],
      "name": "ApprovalForAll",
      "type": "event"
    },
    {
      "anonymous": false,
      "inputs": [
        {
          "indexed": true,
          "internalType": "address",
          "name": "previousOwner",
          "type": "address"
        },
        {
          "indexed": true,
          "internalType": "address",
          "name": "newOwner",
          "type": "address"
        }
      ],
      "name": "OwnershipTransferred",
      "type": "event"
    },
    {
      "anonymous": false,
      "inputs": [
        {
          "indexed": true,
          "internalType": "address",
          "name": "_from",
          "type": "address"
        },
        {
          "indexed": true,
          "internalType": "address",
          "name": "_to",
          "type": "address"
        },
        {
          "indexed": true,
          "internalType": "uint256",
          "name": "_tokenId",
          "type": "uint256"
        }
      ],
      "name": "Transfer",
      "type": "event"
    },
    {
      "inputs": [],
      "name": "CANNOT_TRANSFER_TO_ZERO_ADDRESS",
      "outputs": [
        {
          "internalType": "string",
          "name": "",
          "type": "string"
        }
      ],
      "stateMutability": "view",
      "type": "function"
    },
    {
      "inputs": [],
      "name": "NOT_CURRENT_OWNER",
      "outputs": [
        {
          "internalType": "string",
          "name": "",
          "type": "string"
        }
      ],
      "stateMutability": "view",
      "type": "function"
    },
    {
      "inputs": [
        {
          "internalType": "address",
          "name": "_approved",
          "type": "address"
        },
        {
          "internalType": "uint256",
          "name": "_tokenId",
          "type": "uint256"
        }
      ],
      "name": "approve",
      "outputs": [],
      "stateMutability": "nonpayable",
      "type": "function"
    },
    {
      "inputs": [
        {
          "internalType": "address",
          "name": "_owner",
          "type": "address"
        }
      ],
      "name": "balanceOf",
      "outputs": [
        {
          "internalType": "uint256",
          "name": "",
          "type": "uint256"
        }
      ],
      "stateMutability": "view",
      "type": "function"
    },
    {
      "inputs": [],
      "name": "baseURI",
      "outputs": [
        {
          "internalType": "string",
          "name": "",
          "type": "string"
        }
      ],
      "stateMutability": "view",
      "type": "function"
    },
    {
      "inputs": [
        {
          "internalType": "uint256",
          "name": "_tokenId",
          "type": "uint256"
        }
      ],
      "name": "getApproved",
      "outputs": [
        {
          "internalType": "address",
          "name": "",
          "type": "address"
        }
      ],
      "stateMutability": "view",
      "type": "function"
    },
    {
      "inputs": [
        {
          "internalType": "address",
          "name": "_owner",
          "type": "address"
        },
        {
          "internalType": "address",
          "name": "_operator",
          "type": "address"
        }
      ],
      "name": "isApprovedForAll",
      "outputs": [
        {
          "internalType": "bool",
          "name": "",
          "type": "bool"
        }
      ],
      "stateMutability": "view",
      "type": "function"
    },
    {
      "inputs": [],
      "name": "name",
      "outputs": [
        {
          "internalType": "string",
          "name": "_name",
          "type": "string"
        }
      ],
      "stateMutability": "view",
      "type": "function"
    },
    {
      "inputs": [],
      "name": "owner",
      "outputs": [
        {
          "internalType": "address",
          "name": "",
          "type": "address"
        }
      ],
      "stateMutability": "view",
      "type": "function"
    },
    {
      "inputs": [
        {
          "internalType": "uint256",
          "name": "_tokenId",
          "type": "uint256"
        }
      ],
      "name": "ownerOf",
      "outputs": [
        {
          "internalType": "address",
          "name": "_owner",
          "type": "address"
        }
      ],
      "stateMutability": "view",
      "type": "function"
    },
    {
      "inputs": [
        {
          "internalType": "address",
          "name": "_from",
          "type": "address"
        },
        {
          "internalType": "address",
          "name": "_to",
          "type": "address"
        },
        {
          "internalType": "uint256",
          "name": "_tokenId",
          "type": "uint256"
        }
      ],
      "name": "safeTransferFrom",
      "outputs": [],
      "stateMutability": "nonpayable",
      "type": "function"
    },
    {
      "inputs": [
        {
          "internalType": "address",
          "name": "_from",
          "type": "address"
        },
        {
          "internalType": "address",
          "name": "_to",
          "type": "address"
        },
        {
          "internalType": "uint256",
          "name": "_tokenId",
          "type": "uint256"
        },
        {
          "internalType": "bytes",
          "name": "_data",
          "type": "bytes"
        }
      ],
      "name": "safeTransferFrom",
      "outputs": [],
      "stateMutability": "nonpayable",
      "type": "function"
    },
    {
      "inputs": [
        {
          "internalType": "address",
          "name": "_operator",
          "type": "address"
        },
        {
          "internalType": "bool",
          "name": "_approved",
          "type": "bool"
        }
      ],
      "name": "setApprovalForAll",
      "outputs": [],
      "stateMutability": "nonpayable",
      "type": "function"
    },
    {
      "inputs": [
        {
          "internalType": "bytes4",
          "name": "_interfaceID",
          "type": "bytes4"
        }
      ],
      "name": "supportsInterface",
      "outputs": [
        {
          "internalType": "bool",
          "name": "",
          "type": "bool"
        }
      ],
      "stateMutability": "view",
      "type": "function"
    },
    {
      "inputs": [],
      "name": "symbol",
      "outputs": [
        {
          "internalType": "string",
          "name": "_symbol",
          "type": "string"
        }
      ],
      "stateMutability": "view",
      "type": "function"
    },
    {
      "inputs": [
        {
          "internalType": "uint256",
          "name": "_tokenId",
          "type": "uint256"
        }
      ],
      "name": "tokenURI",
      "outputs": [
        {
          "internalType": "string",
          "name": "",
          "type": "string"
        }
      ],
      "stateMutability": "view",
      "type": "function"
    },
    {
      "inputs": [
        {
          "internalType": "address",
          "name": "_from",
          "type": "address"
        },
        {
          "internalType": "address",
          "name": "_to",
          "type": "address"
        },
        {
          "internalType": "uint256",
          "name": "_tokenId",
          "type": "uint256"
        }
      ],
      "name": "transferFrom",
      "outputs": [],
      "stateMutability": "nonpayable",
      "type": "function"
    },
    {
      "inputs": [
        {
          "internalType": "address",
          "name": "_newOwner",
          "type": "address"
        }
      ],
      "name": "transferOwnership",
      "outputs": [],
      "stateMutability": "nonpayable",
      "type": "function"
    },
    {
      "inputs": [
        {
          "internalType": "address",
          "name": "_to",
          "type": "address"
        },
        {
          "internalType": "uint256",
          "name": "_tokenId",
          "type": "uint256"
        }
      ],
      "name": "mint",
      "outputs": [],
      "stateMutability": "nonpayable",
      "type": "function"
    },
    {
      "inputs": [
        {
          "internalType": "uint256",
          "name": "_tokenId",
          "type": "uint256"
        }
      ],
      "name": "burn",
      "outputs": [],
      "stateMutability": "nonpayable",
      "type": "function"
    }
  ],
  "bytecode": "0x60806040523480156200001157600080fd5b5060405162003640380380620036408339818101604052810190620000379190620002e1565b60016000806301ffc9a760e01b7bffffffffffffffffffffffffffffffffffffffffffffffffffffffff1916815260200190815260200160002060006101000a81548160ff02191690831515021790555060016000806380ac58cd60e01b7bffffffffffffffffffffffffffffffffffffffffffffffffffffffff1916815260200190815260200160002060006101000a81548160ff0219169083151502179055506001600080635b5e139f60e01b7bffffffffffffffffffffffffffffffffffffffffffffffffffffffff1916815260200190815260200160002060006101000a81548160ff02191690831515021790555033600860006101000a81548173ffffffffffffffffffffffffffffffffffffffff021916908373ffffffffffffffffffffffffffffffffffffffff160217905550826005908051906020019062000183929190620001bf565b5081600690805190602001906200019c929190620001bf565b508060099080519060200190620001b5929190620001bf565b50505050620004b3565b828054620001cd906200041f565b90600052602060002090601f016020900481019282620001f157600085556200023d565b82601f106200020c57805160ff19168380011785556200023d565b828001600101855582156200023d579182015b828111156200023c5782518255916020019190600101906200021f565b5b5090506200024c919062000250565b5090565b5b808211156200026b57600081600090555060010162000251565b5090565b6000620002866200028084620003b6565b62000382565b9050828152602081018484840111156200029f57600080fd5b620002ac848285620003e9565b509392505050565b600082601f830112620002c657600080fd5b8151620002d88482602086016200026f565b91505092915050565b600080600060608486031215620002f757600080fd5b600084015167ffffffffffffffff8111156200031257600080fd5b6200032086828701620002b4565b935050602084015167ffffffffffffffff8111156200033e57600080fd5b6200034c86828701620002b4565b925050604084015167ffffffffffffffff8111156200036a57600080fd5b6200037886828701620002b4565b9150509250925092565b6000604051905081810181811067ffffffffffffffff82111715620003ac57620003ab62000484565b5b8060405250919050565b600067ffffffffffffffff821115620003d457620003d362000484565b5b601f19601f8301169050602081019050919050565b60005b8381101562000409578082015181840152602081019050620003ec565b8381111562000419576000848401525b50505050565b600060028204905060018216806200043857607f821691505b602082108114156200044f576200044e62000455565b5b50919050565b7f4e487b7100000000000000000000000000000000000000000000000000000000600052602260045260246000fd5b7f4e487b7100000000000000000000000000000000000000000000000000000000600052604160045260246000fd5b61317d80620004c36000396000f3fe608060405234801561001057600080fd5b506004361061012c5760003560e01c806370a08231116100ad578063b88d4fde11610071578063b88d4fde1461032f578063c87b56dd1461034b578063e985e9c51461037b578063f2fde38b146103ab578063f3fe3bc3146103c75761012c565b806370a0823114610289578063860d248a146102b95780638da5cb5b146102d757806395d89b41146102f5578063a22cb465146103135761012c565b806340c10f19116100f457806340c10f19146101e757806342842e0e1461020357806342966c681461021f5780636352211e1461023b5780636c0360eb1461026b5761012c565b806301ffc9a71461013157806306fdde0314610161578063081812fc1461017f578063095ea7b3146101af57806323b872dd146101cb575b600080fd5b61014b60048036038101906101469190612b10565b6103e5565b6040516101589190612d65565b60405180910390f35b61016961044c565b6040516101769190612d80565b60405180910390f35b61019960048036038101906101949190612b62565b6104de565b6040516101a69190612cfe565b60405180910390f35b6101c960048036038101906101c49190612ad4565b6105f9565b005b6101e560048036038101906101e091906129c9565b6109dc565b005b61020160048036038101906101fc9190612ad4565b610e2e565b005b61021d600480360381019061021891906129c9565b610f05565b005b61023960048036038101906102349190612b62565b610f25565b005b61025560048036038101906102509190612b62565b610ffa565b6040516102629190612cfe565b60405180910390f35b6102736110e0565b6040516102809190612d80565b60405180910390f35b6102a3600480360381019061029e9190612964565b61116e565b6040516102b09190612da2565b60405180910390f35b6102c1611228565b6040516102ce9190612d80565b60405180910390f35b6102df611261565b6040516102ec9190612cfe565b60405180910390f35b6102fd611287565b60405161030a9190612d80565b60405180910390f35b61032d60048036038101906103289190612a98565b611319565b005b61034960048036038101906103449190612a18565b611416565b005b61036560048036038101906103609190612b62565b61146d565b6040516103729190612d80565b60405180910390f35b6103956004803603810190610390919061298d565b61155d565b6040516103a29190612d65565b60405180910390f35b6103c560048036038101906103c09190612964565b6115f1565b005b6103cf611823565b6040516103dc9190612d80565b60405180910390f35b6000806000837bffffffffffffffffffffffffffffffffffffffffffffffffffffffff19167bffffffffffffffffffffffffffffffffffffffffffffffffffffffff1916815260200190815260200160002060009054906101000a900460ff169050919050565b60606005805461045b90612fa1565b80601f016020809104026020016040519081016040528092919081815260200182805461048790612fa1565b80156104d45780601f106104a9576101008083540402835291602001916104d4565b820191906000526020600020905b8154815290600101906020018083116104b757829003601f168201915b5050505050905090565b600081600073ffffffffffffffffffffffffffffffffffffffff166001600083815260200190815260200160002060009054906101000a900473ffffffffffffffffffffffffffffffffffffffff1673ffffffffffffffffffffffffffffffffffffffff1614156040518060400160405280600681526020017f3030333030320000000000000000000000000000000000000000000000000000815250906105bc576040517f08c379a00000000000000000000000000000000000000000000000000000000081526004016105b39190612d80565b60405180910390fd5b506002600084815260200190815260200160002060009054906101000a900473ffffffffffffffffffffffffffffffffffffffff16915050919050565b8060006001600083815260200190815260200160002060009054906101000a900473ffffffffffffffffffffffffffffffffffffffff1690503373ffffffffffffffffffffffffffffffffffffffff168173ffffffffffffffffffffffffffffffffffffffff1614806106f25750600460008273ffffffffffffffffffffffffffffffffffffffff1673ffffffffffffffffffffffffffffffffffffffff16815260200190815260200160002060003373ffffffffffffffffffffffffffffffffffffffff1673ffffffffffffffffffffffffffffffffffffffff16815260200190815260200160002060009054906101000a900460ff165b6040518060400160405280600681526020017f303033303033000000000000000000000000000000000000000000000000000081525090610769576040517f08c379a00000000000000000000000000000000000000000000000000000000081526004016107609190612d80565b60405180910390fd5b5082600073ffffffffffffffffffffffffffffffffffffffff166001600083815260200190815260200160002060009054906101000a900473ffffffffffffffffffffffffffffffffffffffff1673ffffffffffffffffffffffffffffffffffffffff1614156040518060400160405280600681526020017f303033303032000000000000000000000000000000000000000000000000000081525090610846576040517f08c379a000000000000000000000000000000000000000000000000000000000815260040161083d9190612d80565b60405180910390fd5b5060006001600086815260200190815260200160002060009054906101000a900473ffffffffffffffffffffffffffffffffffffffff1690508073ffffffffffffffffffffffffffffffffffffffff168673ffffffffffffffffffffffffffffffffffffffff1614156040518060400160405280600681526020017f303033303038000000000000000000000000000000000000000000000000000081525090610926576040517f08c379a000000000000000000000000000000000000000000000000000000000815260040161091d9190612d80565b60405180910390fd5b50856002600087815260200190815260200160002060006101000a81548173ffffffffffffffffffffffffffffffffffffffff021916908373ffffffffffffffffffffffffffffffffffffffff160217905550848673ffffffffffffffffffffffffffffffffffffffff168273ffffffffffffffffffffffffffffffffffffffff167f8c5be1e5ebec7d5bd14f71427d1e84f3dd0314c0f7b2291e5b200ac8c7c3b92560405160405180910390a4505050505050565b8060006001600083815260200190815260200160002060009054906101000a900473ffffffffffffffffffffffffffffffffffffffff1690503373ffffffffffffffffffffffffffffffffffffffff168173ffffffffffffffffffffffffffffffffffffffff161480610aad57503373ffffffffffffffffffffffffffffffffffffffff166002600084815260200190815260200160002060009054906101000a900473ffffffffffffffffffffffffffffffffffffffff1673ffffffffffffffffffffffffffffffffffffffff16145b80610b3e5750600460008273ffffffffffffffffffffffffffffffffffffffff1673ffffffffffffffffffffffffffffffffffffffff16815260200190815260200160002060003373ffffffffffffffffffffffffffffffffffffffff1673ffffffffffffffffffffffffffffffffffffffff16815260200190815260200160002060009054906101000a900460ff165b6040518060400160405280600681526020017f303033303034000000000000000000000000000000000000000000000000000081525090610bb5576040517f08c379a0000000000000000000000000000000000000000000000000000000008152600401610bac9190612d80565b60405180910390fd5b5082600073ffffffffffffffffffffffffffffffffffffffff166001600083815260200190815260200160002060009054906101000a900473ffffffffffffffffffffffffffffffffffffffff1673ffffffffffffffffffffffffffffffffffffffff1614156040518060400160405280600681526020017f303033303032000000000000000000000000000000000000000000000000000081525090610c92576040517f08c379a0000000000000000000000000000000000000000000000000000000008152600401610c899190612d80565b60405180910390fd5b5060006001600086815260200190815260200160002060009054906101000a900473ffffffffffffffffffffffffffffffffffffffff1690508673ffffffffffffffffffffffffffffffffffffffff168173ffffffffffffffffffffffffffffffffffffffff16146040518060400160405280600681526020017f303033303037000000000000000000000000000000000000000000000000000081525090610d71576040517f08c379a0000000000000000000000000000000000000000000000000000000008152600401610d689190612d80565b60405180910390fd5b50600073ffffffffffffffffffffffffffffffffffffffff168673ffffffffffffffffffffffffffffffffffffffff1614156040518060400160405280600681526020017f303033303031000000000000000000000000000000000000000000000000000081525090610e1a576040517f08c379a0000000000000000000000000000000000000000000000000000000008152600401610e119190612d80565b60405180910390fd5b50610e25868661185c565b50505050505050565b600860009054906101000a900473ffffffffffffffffffffffffffffffffffffffff1673ffffffffffffffffffffffffffffffffffffffff163373ffffffffffffffffffffffffffffffffffffffff16146040518060400160405280600681526020017f303138303031000000000000000000000000000000000000000000000000000081525090610ef6576040517f08c379a0000000000000000000000000000000000000000000000000000000008152600401610eed9190612d80565b60405180910390fd5b50610f018282611911565b5050565b610f2083838360405180602001604052806000815250611aff565b505050565b600860009054906101000a900473ffffffffffffffffffffffffffffffffffffffff1673ffffffffffffffffffffffffffffffffffffffff163373ffffffffffffffffffffffffffffffffffffffff16146040518060400160405280600681526020017f303138303031000000000000000000000000000000000000000000000000000081525090610fed576040517f08c379a0000000000000000000000000000000000000000000000000000000008152600401610fe49190612d80565b60405180910390fd5b50610ff7816120cd565b50565b60006001600083815260200190815260200160002060009054906101000a900473ffffffffffffffffffffffffffffffffffffffff169050600073ffffffffffffffffffffffffffffffffffffffff168173ffffffffffffffffffffffffffffffffffffffff1614156040518060400160405280600681526020017f3030333030320000000000000000000000000000000000000000000000000000815250906110da576040517f08c379a00000000000000000000000000000000000000000000000000000000081526004016110d19190612d80565b60405180910390fd5b50919050565b600980546110ed90612fa1565b80601f016020809104026020016040519081016040528092919081815260200182805461111990612fa1565b80156111665780601f1061113b57610100808354040283529160200191611166565b820191906000526020600020905b81548152906001019060200180831161114957829003601f168201915b505050505081565b60008073ffffffffffffffffffffffffffffffffffffffff168273ffffffffffffffffffffffffffffffffffffffff1614156040518060400160405280600681526020017f303033303031000000000000000000000000000000000000000000000000000081525090611217576040517f08c379a000000000000000000000000000000000000000000000000000000000815260040161120e9190612d80565b60405180910390fd5b50611221826120f8565b9050919050565b6040518060400160405280600681526020017f303138303032000000000000000000000000000000000000000000000000000081525081565b600860009054906101000a900473ffffffffffffffffffffffffffffffffffffffff1681565b60606006805461129690612fa1565b80601f01602080910402602001604051908101604052809291908181526020018280546112c290612fa1565b801561130f5780601f106112e45761010080835404028352916020019161130f565b820191906000526020600020905b8154815290600101906020018083116112f257829003601f168201915b5050505050905090565b80600460003373ffffffffffffffffffffffffffffffffffffffff1673ffffffffffffffffffffffffffffffffffffffff16815260200190815260200160002060008473ffffffffffffffffffffffffffffffffffffffff1673ffffffffffffffffffffffffffffffffffffffff16815260200190815260200160002060006101000a81548160ff0219169083151502179055508173ffffffffffffffffffffffffffffffffffffffff163373ffffffffffffffffffffffffffffffffffffffff167f17307eab39ab6107e8899845ad3d59bd9653f200f220920489ca2b5937696c318360405161140a9190612d65565b60405180910390a35050565b61146685858585858080601f016020809104026020016040519081016040528093929190818152602001838380828437600081840152601f19601f82011690508083019250505050505050611aff565b5050505050565b606081600073ffffffffffffffffffffffffffffffffffffffff166001600083815260200190815260200160002060009054906101000a900473ffffffffffffffffffffffffffffffffffffffff1673ffffffffffffffffffffffffffffffffffffffff1614156040518060400160405280600681526020017f30303330303200000000000000000000000000000000000000000000000000008152509061154b576040517f08c379a00000000000000000000000000000000000000000000000000000000081526004016115429190612d80565b60405180910390fd5b5061155583612141565b915050919050565b6000600460008473ffffffffffffffffffffffffffffffffffffffff1673ffffffffffffffffffffffffffffffffffffffff16815260200190815260200160002060008373ffffffffffffffffffffffffffffffffffffffff1673ffffffffffffffffffffffffffffffffffffffff16815260200190815260200160002060009054906101000a900460ff16905092915050565b600860009054906101000a900473ffffffffffffffffffffffffffffffffffffffff1673ffffffffffffffffffffffffffffffffffffffff163373ffffffffffffffffffffffffffffffffffffffff16146040518060400160405280600681526020017f3031383030310000000000000000000000000000000000000000000000000000815250906116b9576040517f08c379a00000000000000000000000000000000000000000000000000000000081526004016116b09190612d80565b60405180910390fd5b50600073ffffffffffffffffffffffffffffffffffffffff168173ffffffffffffffffffffffffffffffffffffffff1614156040518060400160405280600681526020017f303138303032000000000000000000000000000000000000000000000000000081525090611762576040517f08c379a00000000000000000000000000000000000000000000000000000000081526004016117599190612d80565b60405180910390fd5b508073ffffffffffffffffffffffffffffffffffffffff16600860009054906101000a900473ffffffffffffffffffffffffffffffffffffffff1673ffffffffffffffffffffffffffffffffffffffff167f8be0079c531659141344cd1fd0a4f28419497f9722a3daafe3b4186f6b6457e060405160405180910390a380600860006101000a81548173ffffffffffffffffffffffffffffffffffffffff021916908373ffffffffffffffffffffffffffffffffffffffff16021790555050565b6040518060400160405280600681526020017f303138303031000000000000000000000000000000000000000000000000000081525081565b60006001600083815260200190815260200160002060009054906101000a900473ffffffffffffffffffffffffffffffffffffffff16905061189d826121a1565b6118a781836121da565b6118b18383612345565b818373ffffffffffffffffffffffffffffffffffffffff168273ffffffffffffffffffffffffffffffffffffffff167fddf252ad1be2c89b69c2b068fc378daa952ba7f163c4a11628f55a4df523b3ef60405160405180910390a4505050565b600073ffffffffffffffffffffffffffffffffffffffff168273ffffffffffffffffffffffffffffffffffffffff1614156040518060400160405280600681526020017f3030333030310000000000000000000000000000000000000000000000000000815250906119b9576040517f08c379a00000000000000000000000000000000000000000000000000000000081526004016119b09190612d80565b60405180910390fd5b50600073ffffffffffffffffffffffffffffffffffffffff166001600083815260200190815260200160002060009054906101000a900473ffffffffffffffffffffffffffffffffffffffff1673ffffffffffffffffffffffffffffffffffffffff16146040518060400160405280600681526020017f303033303036000000000000000000000000000000000000000000000000000081525090611a94576040517f08c379a0000000000000000000000000000000000000000000000000000000008152600401611a8b9190612d80565b60405180910390fd5b50611a9f8282612345565b808273ffffffffffffffffffffffffffffffffffffffff16600073ffffffffffffffffffffffffffffffffffffffff167fddf252ad1be2c89b69c2b068fc378daa952ba7f163c4a11628f55a4df523b3ef60405160405180910390a45050565b8160006001600083815260200190815260200160002060009054906101000a900473ffffffffffffffffffffffffffffffffffffffff1690503373ffffffffffffffffffffffffffffffffffffffff168173ffffffffffffffffffffffffffffffffffffffff161480611bd057503373ffffffffffffffffffffffffffffffffffffffff166002600084815260200190815260200160002060009054906101000a900473ffffffffffffffffffffffffffffffffffffffff1673ffffffffffffffffffffffffffffffffffffffff16145b80611c615750600460008273ffffffffffffffffffffffffffffffffffffffff1673ffffffffffffffffffffffffffffffffffffffff16815260200190815260200160002060003373ffffffffffffffffffffffffffffffffffffffff1673ffffffffffffffffffffffffffffffffffffffff16815260200190815260200160002060009054906101000a900460ff165b6040518060400160405280600681526020017f303033303034000000000000000000000000000000000000000000000000000081525090611cd8576040517f08c379a0000000000000000000000000000000000000000000000000000000008152600401611ccf9190612d80565b60405180910390fd5b5083600073ffffffffffffffffffffffffffffffffffffffff166001600083815260200190815260200160002060009054906101000a900473ffffffffffffffffffffffffffffffffffffffff1673ffffffffffffffffffffffffffffffffffffffff1614156040518060400160405280600681526020017f303033303032000000000000000000000000000000000000000000000000000081525090611db5576040517f08c379a0000000000000000000000000000000000000000000000000000000008152600401611dac9190612d80565b60405180910390fd5b5060006001600087815260200190815260200160002060009054906101000a900473ffffffffffffffffffffffffffffffffffffffff1690508773ffffffffffffffffffffffffffffffffffffffff168173ffffffffffffffffffffffffffffffffffffffff16146040518060400160405280600681526020017f303033303037000000000000000000000000000000000000000000000000000081525090611e94576040517f08c379a0000000000000000000000000000000000000000000000000000000008152600401611e8b9190612d80565b60405180910390fd5b50600073ffffffffffffffffffffffffffffffffffffffff168773ffffffffffffffffffffffffffffffffffffffff1614156040518060400160405280600681526020017f303033303031000000000000000000000000000000000000000000000000000081525090611f3d576040517f08c379a0000000000000000000000000000000000000000000000000000000008152600401611f349190612d80565b60405180910390fd5b50611f48878761185c565b611f678773ffffffffffffffffffffffffffffffffffffffff166124cd565b156120c35760008773ffffffffffffffffffffffffffffffffffffffff1663150b7a02338b8a8a6040518563ffffffff1660e01b8152600401611fad9493929190612d19565b602060405180830381600087803b158015611fc757600080fd5b505af1158015611fdb573d6000803e3d6000fd5b505050506040513d601f19601f82011682018060405250810190611fff9190612b39565b905063150b7a0260e01b7bffffffffffffffffffffffffffffffffffffffffffffffffffffffff1916817bffffffffffffffffffffffffffffffffffffffffffffffffffffffff1916146040518060400160405280600681526020017f3030333030350000000000000000000000000000000000000000000000000000815250906120c0576040517f08c379a00000000000000000000000000000000000000000000000000000000081526004016120b79190612d80565b60405180910390fd5b50505b5050505050505050565b6120d681612518565b6007600082815260200190815260200160002060006120f59190612854565b50565b6000600360008373ffffffffffffffffffffffffffffffffffffffff1673ffffffffffffffffffffffffffffffffffffffff168152602001908152602001600020549050919050565b606060006009805461215290612fa1565b90501161216e576040518060200160405280600081525061219a565b6009612179836126a1565b60405160200161218a929190612cda565b6040516020818303038152906040525b9050919050565b6002600082815260200190815260200160002060006101000a81549073ffffffffffffffffffffffffffffffffffffffff021916905550565b8173ffffffffffffffffffffffffffffffffffffffff166001600083815260200190815260200160002060009054906101000a900473ffffffffffffffffffffffffffffffffffffffff1673ffffffffffffffffffffffffffffffffffffffff16146040518060400160405280600681526020017f3030333030370000000000000000000000000000000000000000000000000000815250906122b3576040517f08c379a00000000000000000000000000000000000000000000000000000000081526004016122aa9190612d80565b60405180910390fd5b506001600360008473ffffffffffffffffffffffffffffffffffffffff1673ffffffffffffffffffffffffffffffffffffffff16815260200190815260200160002060008282546123049190612e9c565b925050819055506001600082815260200190815260200160002060006101000a81549073ffffffffffffffffffffffffffffffffffffffff02191690555050565b600073ffffffffffffffffffffffffffffffffffffffff166001600083815260200190815260200160002060009054906101000a900473ffffffffffffffffffffffffffffffffffffffff1673ffffffffffffffffffffffffffffffffffffffff16146040518060400160405280600681526020017f30303330303600000000000000000000000000000000000000000000000000008152509061241f576040517f08c379a00000000000000000000000000000000000000000000000000000000081526004016124169190612d80565b60405180910390fd5b50816001600083815260200190815260200160002060006101000a81548173ffffffffffffffffffffffffffffffffffffffff021916908373ffffffffffffffffffffffffffffffffffffffff1602179055506001600360008473ffffffffffffffffffffffffffffffffffffffff1673ffffffffffffffffffffffffffffffffffffffff16815260200190815260200160002060008282546124c29190612e15565b925050819055505050565b60008060007fc5d2460186f7233c927e7db2dcc703c0e500b653ca82273b7bfad8045d85a47060001b9050833f91506000801b821415801561250f5750808214155b92505050919050565b80600073ffffffffffffffffffffffffffffffffffffffff166001600083815260200190815260200160002060009054906101000a900473ffffffffffffffffffffffffffffffffffffffff1673ffffffffffffffffffffffffffffffffffffffff1614156040518060400160405280600681526020017f3030333030320000000000000000000000000000000000000000000000000000815250906125f4576040517f08c379a00000000000000000000000000000000000000000000000000000000081526004016125eb9190612d80565b60405180910390fd5b5060006001600084815260200190815260200160002060009054906101000a900473ffffffffffffffffffffffffffffffffffffffff169050612636836121a1565b61264081846121da565b82600073ffffffffffffffffffffffffffffffffffffffff168273ffffffffffffffffffffffffffffffffffffffff167fddf252ad1be2c89b69c2b068fc378daa952ba7f163c4a11628f55a4df523b3ef60405160405180910390a4505050565b606060008214156126e9576040518060400160405280600181526020017f3000000000000000000000000000000000000000000000000000000000000000815250905061284f565b600082905060005b6000821461271b57808061270490612fd3565b915050600a826127149190612e6b565b91506126f1565b60008167ffffffffffffffff81111561275d577f4e487b7100000000000000000000000000000000000000000000000000000000600052604160045260246000fd5b6040519080825280601f01601f19166020018201604052801561278f5781602001600182028036833780820191505090505b50905060008290508593505b6000841461284757600a846127b0919061301c565b60306127bc9190612e15565b60f81b82826127ca90612f77565b92508281518110612804577f4e487b7100000000000000000000000000000000000000000000000000000000600052603260045260246000fd5b60200101907effffffffffffffffffffffffffffffffffffffffffffffffffffffffffffff1916908160001a905350600a846128409190612e6b565b935061279b565b819450505050505b919050565b50805461286090612fa1565b6000825580601f106128725750612891565b601f0160209004906000526020600020908101906128909190612894565b5b50565b5b808211156128ad576000816000905550600101612895565b5090565b6000813590506128c0816130eb565b92915050565b6000813590506128d581613102565b92915050565b6000813590506128ea81613119565b92915050565b6000815190506128ff81613119565b92915050565b60008083601f84011261291757600080fd5b8235905067ffffffffffffffff81111561293057600080fd5b60208301915083600182028301111561294857600080fd5b9250929050565b60008135905061295e81613130565b92915050565b60006020828403121561297657600080fd5b6000612984848285016128b1565b91505092915050565b600080604083850312156129a057600080fd5b60006129ae858286016128b1565b92505060206129bf858286016128b1565b9150509250929050565b6000806000606084860312156129de57600080fd5b60006129ec868287016128b1565b93505060206129fd868287016128b1565b9250506040612a0e8682870161294f565b9150509250925092565b600080600080600060808688031215612a3057600080fd5b6000612a3e888289016128b1565b9550506020612a4f888289016128b1565b9450506040612a608882890161294f565b935050606086013567ffffffffffffffff811115612a7d57600080fd5b612a8988828901612905565b92509250509295509295909350565b60008060408385031215612aab57600080fd5b6000612ab9858286016128b1565b9250506020612aca858286016128c6565b9150509250929050565b60008060408385031215612ae757600080fd5b6000612af5858286016128b1565b9250506020612b068582860161294f565b9150509250929050565b600060208284031215612b2257600080fd5b6000612b30848285016128db565b91505092915050565b600060208284031215612b4b57600080fd5b6000612b59848285016128f0565b91505092915050565b600060208284031215612b7457600080fd5b6000612b828482850161294f565b91505092915050565b612b9481612ed0565b82525050565b612ba381612ee2565b82525050565b6000612bb482612dd2565b612bbe8185612de8565b9350612bce818560208601612f44565b612bd7816130da565b840191505092915050565b6000612bed82612ddd565b612bf78185612df9565b9350612c07818560208601612f44565b612c10816130da565b840191505092915050565b6000612c2682612ddd565b612c308185612e0a565b9350612c40818560208601612f44565b80840191505092915050565b60008154612c5981612fa1565b612c638186612e0a565b94506001821660008114612c7e5760018114612c8f57612cc2565b60ff19831686528186019350612cc2565b612c9885612dbd565b60005b83811015612cba57815481890152600182019150602081019050612c9b565b838801955050505b50505092915050565b612cd481612f3a565b82525050565b6000612ce68285612c4c565b9150612cf28284612c1b565b91508190509392505050565b6000602082019050612d136000830184612b8b565b92915050565b6000608082019050612d2e6000830187612b8b565b612d3b6020830186612b8b565b612d486040830185612ccb565b8181036060830152612d5a8184612ba9565b905095945050505050565b6000602082019050612d7a6000830184612b9a565b92915050565b60006020820190508181036000830152612d9a8184612be2565b905092915050565b6000602082019050612db76000830184612ccb565b92915050565b60008190508160005260206000209050919050565b600081519050919050565b600081519050919050565b600082825260208201905092915050565b600082825260208201905092915050565b600081905092915050565b6000612e2082612f3a565b9150612e2b83612f3a565b9250827fffffffffffffffffffffffffffffffffffffffffffffffffffffffffffffffff03821115612e6057612e5f61304d565b5b828201905092915050565b6000612e7682612f3a565b9150612e8183612f3a565b925082612e9157612e9061307c565b5b828204905092915050565b6000612ea782612f3a565b9150612eb283612f3a565b925082821015612ec557612ec461304d565b5b828203905092915050565b6000612edb82612f1a565b9050919050565b60008115159050919050565b60007fffffffff0000000000000000000000000000000000000000000000000000000082169050919050565b600073ffffffffffffffffffffffffffffffffffffffff82169050919050565b6000819050919050565b60005b83811015612f62578082015181840152602081019050612f47565b83811115612f71576000848401525b50505050565b6000612f8282612f3a565b91506000821415612f9657612f9561304d565b5b600182039050919050565b60006002820490506001821680612fb957607f821691505b60208210811415612fcd57612fcc6130ab565b5b50919050565b6000612fde82612f3a565b91507fffffffffffffffffffffffffffffffffffffffffffffffffffffffffffffffff8214156130115761301061304d565b5b600182019050919050565b600061302782612f3a565b915061303283612f3a565b9250826130425761304161307c565b5b828206905092915050565b7f4e487b7100000000000000000000000000000000000000000000000000000000600052601160045260246000fd5b7f4e487b7100000000000000000000000000000000000000000000000000000000600052601260045260246000fd5b7f4e487b7100000000000000000000000000000000000000000000000000000000600052602260045260246000fd5b6000601f19601f8301169050919050565b6130f481612ed0565b81146130ff57600080fd5b50565b61310b81612ee2565b811461311657600080fd5b50565b61312281612eee565b811461312d57600080fd5b50565b61313981612f3a565b811461314457600080fd5b5056fea2646970667358221220c7f479709c074a4e2da2517ff6624518a19b3cea672d21860e1fca46408b4e1364736f6c63430008000033",
  "immutableReferences": {},
  "source": "// SPDX-License-Identifier: MIT\r\npragma solidity ^0.8.0;\r\n\r\nimport \"../tokens/nf-token-metadata.sol\";\r\nimport \"../ownership/ownable.sol\";\r\n\r\n/**\r\n * @dev This is an example contract implementation of NFToken with metadata extension.\r\n */\r\ncontract NFTokenMetadataBaseUriMock is\r\n  NFTokenMetadata,\r\n  Ownable\r\n{\r\n\r\n  /**\r\n   * @dev URI base for tokenURI function. Token URI is constructed as baseURI + tokenId.\r\n   */\r\n  string public baseURI;\r\n\r\n  /**\r\n   * @dev Contract constructor.\r\n   * @param _name A descriptive name for a collection of NFTs.\r\n   * @param _symbol An abbreviated name for NFTokens.\r\n   * @param _baseURI String representing base RFC 3986 URI.\r\n   */\r\n  constructor(\r\n    string memory _name,\r\n    string memory _symbol,\r\n    string memory _baseURI\r\n  )\r\n  {\r\n    nftName = _name;\r\n    nftSymbol = _symbol;\r\n    baseURI = _baseURI;\r\n  }\r\n\r\n  /**\r\n   * @dev Mints a new NFT.\r\n   * @param _to The address that will own the minted NFT.\r\n   * @param _tokenId of the NFT to be minted by the msg.sender.\r\n   */\r\n  function mint(\r\n    address _to,\r\n    uint256 _tokenId\r\n  )\r\n    external\r\n    onlyOwner\r\n  {\r\n    super._mint(_to, _tokenId);\r\n  }\r\n\r\n  /**\r\n   * @dev Removes a NFT from owner.\r\n   * @param _tokenId Which NFT we want to remove.\r\n   */\r\n  function burn(\r\n    uint256 _tokenId\r\n  )\r\n    external\r\n    onlyOwner\r\n  {\r\n    super._burn(_tokenId);\r\n  }\r\n\r\n    /**\r\n   * @dev A distinct URI (RFC 3986) for a given NFT.\r\n   * @param _tokenId Id for which we want uri.\r\n   * @return URI of _tokenId.\r\n   */\r\n  function _tokenURI(\r\n    uint256 _tokenId\r\n  )\r\n    internal\r\n    override\r\n    view\r\n    returns (string memory)\r\n  {\r\n    return bytes(baseURI).length > 0 ? string(abi.encodePacked(baseURI, _uint2str(_tokenId))) : \"\";\r\n  }\r\n\r\n  /**\r\n   * @dev Helper function that changes uint to string representation.\r\n   * @return str String representation.\r\n   */\r\n  function _uint2str(\r\n    uint256 _i\r\n  )\r\n    internal\r\n    pure\r\n    returns (string memory str)\r\n  {\r\n    if (_i == 0) {\r\n      return \"0\";\r\n    }\r\n    uint256 j = _i;\r\n    uint256 length;\r\n    while (j != 0) {\r\n      length++;\r\n      j /= 10;\r\n    }\r\n    bytes memory bstr = new bytes(length);\r\n    uint256 k = length;\r\n    j = _i;\r\n    while (j != 0) {\r\n      bstr[--k] = bytes1(uint8(48 + j % 10));\r\n      j /= 10;\r\n    }\r\n    str = string(bstr);\r\n  }\r\n}\r\n",
  "sourcePath": "C:\\Users\\mital\\OneDrive\\Desktop\\Mitali-hackx\\contracts\\contracts\\mocks\\nf-token-metadata-base-uri-mock.sol",
  "compiler": {
    "name": "solc",
    "version": "0.8.0+commit.c7dfd78e.Emscripten.clang"
  },
  "schemaVersion": "3.4.15",
  "updatedAt": "2023-10-03T18:06:21.205Z",
  "devdoc": {
    "details": "This is an example contract implementation of NFToken with metadata extension.",
    "kind": "dev",
    "methods": {
      "approve(address,uint256)": {
        "details": "Set or reaffirm the approved address for an NFT. This function can be changed to payable.",
        "params": {
          "_approved": "Address to be approved for the given NFT ID.",
          "_tokenId": "ID of the token to be approved."
        }
      },
      "balanceOf(address)": {
        "details": "Returns the number of NFTs owned by `_owner`. NFTs assigned to the zero address are considered invalid, and this function throws for queries about the zero address.",
        "params": {
          "_owner": "Address for whom to query the balance."
        },
        "returns": {
          "_0": "Balance of _owner."
        }
      },
      "burn(uint256)": {
        "details": "Removes a NFT from owner.",
        "params": {
          "_tokenId": "Which NFT we want to remove."
        }
      },
      "constructor": {
        "details": "Contract constructor.",
        "params": {
          "_baseURI": "String representing base RFC 3986 URI.",
          "_name": "A descriptive name for a collection of NFTs.",
          "_symbol": "An abbreviated name for NFTokens."
        }
      },
      "getApproved(uint256)": {
        "details": "Get the approved address for a single NFT.",
        "params": {
          "_tokenId": "ID of the NFT to query the approval of."
        },
        "returns": {
          "_0": "Address that _tokenId is approved for."
        }
      },
      "isApprovedForAll(address,address)": {
        "details": "Checks if `_operator` is an approved operator for `_owner`.",
        "params": {
          "_operator": "The address that acts on behalf of the owner.",
          "_owner": "The address that owns the NFTs."
        },
        "returns": {
          "_0": "True if approved for all, false otherwise."
        }
      },
      "mint(address,uint256)": {
        "details": "Mints a new NFT.",
        "params": {
          "_to": "The address that will own the minted NFT.",
          "_tokenId": "of the NFT to be minted by the msg.sender."
        }
      },
      "name()": {
        "details": "Returns a descriptive name for a collection of NFTokens.",
        "returns": {
          "_name": "Representing name."
        }
      },
      "ownerOf(uint256)": {
        "details": "Returns the address of the owner of the NFT. NFTs assigned to the zero address are considered invalid, and queries about them do throw.",
        "params": {
          "_tokenId": "The identifier for an NFT."
        },
        "returns": {
          "_owner": "Address of _tokenId owner."
        }
      },
      "safeTransferFrom(address,address,uint256)": {
        "details": "Transfers the ownership of an NFT from one address to another address. This function can be changed to payable.",
        "params": {
          "_from": "The current owner of the NFT.",
          "_to": "The new owner.",
          "_tokenId": "The NFT to transfer."
        }
      },
      "safeTransferFrom(address,address,uint256,bytes)": {
        "details": "Transfers the ownership of an NFT from one address to another address. This function can be changed to payable.",
        "params": {
          "_data": "Additional data with no specified format, sent in call to `_to`.",
          "_from": "The current owner of the NFT.",
          "_to": "The new owner.",
          "_tokenId": "The NFT to transfer."
        }
      },
      "setApprovalForAll(address,bool)": {
        "details": "Enables or disables approval for a third party (\"operator\") to manage all of `msg.sender`'s assets. It also emits the ApprovalForAll event.",
        "params": {
          "_approved": "True if the operators is approved, false to revoke approval.",
          "_operator": "Address to add to the set of authorized operators."
        }
      },
      "supportsInterface(bytes4)": {
        "details": "Function to check which interfaces are suported by this contract.",
        "params": {
          "_interfaceID": "Id of the interface."
        },
        "returns": {
          "_0": "True if _interfaceID is supported, false otherwise."
        }
      },
      "symbol()": {
        "details": "Returns an abbreviated name for NFTokens.",
        "returns": {
          "_symbol": "Representing symbol."
        }
      },
      "tokenURI(uint256)": {
        "details": "A distinct URI (RFC 3986) for a given NFT.",
        "params": {
          "_tokenId": "Id for which we want uri."
        },
        "returns": {
          "_0": "URI of _tokenId."
        }
      },
      "transferFrom(address,address,uint256)": {
        "details": "Throws unless `msg.sender` is the current owner, an authorized operator, or the approved address for this NFT. Throws if `_from` is not the current owner. Throws if `_to` is the zero address. Throws if `_tokenId` is not a valid NFT. This function can be changed to payable.",
        "params": {
          "_from": "The current owner of the NFT.",
          "_to": "The new owner.",
          "_tokenId": "The NFT to transfer."
        }
      },
      "transferOwnership(address)": {
        "details": "Allows the current owner to transfer control of the contract to a newOwner.",
        "params": {
          "_newOwner": "The address to transfer ownership to."
        }
      }
    },
    "stateVariables": {
      "baseURI": {
        "details": "URI base for tokenURI function. Token URI is constructed as baseURI + tokenId."
      }
    },
    "version": 1
  },
  "userdoc": {
    "kind": "user",
    "methods": {
      "approve(address,uint256)": {
        "notice": "The zero address indicates there is no approved address. Throws unless `msg.sender` is the current NFT owner, or an authorized operator of the current owner."
      },
      "getApproved(uint256)": {
        "notice": "Throws if `_tokenId` is not a valid NFT."
      },
      "safeTransferFrom(address,address,uint256)": {
        "notice": "This works identically to the other function with an extra data parameter, except this function just sets data to \"\"."
      },
      "safeTransferFrom(address,address,uint256,bytes)": {
        "notice": "Throws unless `msg.sender` is the current owner, an authorized operator, or the approved address for this NFT. Throws if `_from` is not the current owner. Throws if `_to` is the zero address. Throws if `_tokenId` is not a valid NFT. When transfer is complete, this function checks if `_to` is a smart contract (code size > 0). If so, it calls `onERC721Received` on `_to` and throws if the return value is not `bytes4(keccak256(\"onERC721Received(address,uint256,bytes)\"))`."
      },
      "setApprovalForAll(address,bool)": {
        "notice": "This works even if sender doesn't own any tokens at the time."
      },
      "transferFrom(address,address,uint256)": {
        "notice": "The caller is responsible to confirm that `_to` is capable of receiving NFTs or else they may be permanently lost."
      }
    },
    "version": 1
  }
}