{
  "contractName": "NFTokenEnumerableMock",
  "abi": [
    {
      "anonymous": false,
      "inputs": [
        {
          "indexed": true,
          "internalType": "address",
          "name": "_owner",
          "type": "address"
        },
        {
          "indexed": true,
          "internalType": "address",
          "name": "_approved",
          "type": "address"
        },
        {
          "indexed": true,
          "internalType": "uint256",
          "name": "_tokenId",
          "type": "uint256"
        }
      ],
      "name": "Approval",
      "type": "event"
    },
    {
      "anonymous": false,
      "inputs": [
        {
          "indexed": true,
          "internalType": "address",
          "name": "_owner",
          "type": "address"
        },
        {
          "indexed": true,
          "internalType": "address",
          "name": "_operator",
          "type": "address"
        },
        {
          "indexed": false,
          "internalType": "bool",
          "name": "_approved",
          "type": "bool"
        }
      ],
      "name": "ApprovalForAll",
      "type": "event"
    },
    {
      "anonymous": false,
      "inputs": [
        {
          "indexed": true,
          "internalType": "address",
          "name": "previousOwner",
          "type": "address"
        },
        {
          "indexed": true,
          "internalType": "address",
          "name": "newOwner",
          "type": "address"
        }
      ],
      "name": "OwnershipTransferred",
      "type": "event"
    },
    {
      "anonymous": false,
      "inputs": [
        {
          "indexed": true,
          "internalType": "address",
          "name": "_from",
          "type": "address"
        },
        {
          "indexed": true,
          "internalType": "address",
          "name": "_to",
          "type": "address"
        },
        {
          "indexed": true,
          "internalType": "uint256",
          "name": "_tokenId",
          "type": "uint256"
        }
      ],
      "name": "Transfer",
      "type": "event"
    },
    {
      "inputs": [],
      "name": "CANNOT_TRANSFER_TO_ZERO_ADDRESS",
      "outputs": [
        {
          "internalType": "string",
          "name": "",
          "type": "string"
        }
      ],
      "stateMutability": "view",
      "type": "function"
    },
    {
      "inputs": [],
      "name": "NOT_CURRENT_OWNER",
      "outputs": [
        {
          "internalType": "string",
          "name": "",
          "type": "string"
        }
      ],
      "stateMutability": "view",
      "type": "function"
    },
    {
      "inputs": [
        {
          "internalType": "address",
          "name": "_approved",
          "type": "address"
        },
        {
          "internalType": "uint256",
          "name": "_tokenId",
          "type": "uint256"
        }
      ],
      "name": "approve",
      "outputs": [],
      "stateMutability": "nonpayable",
      "type": "function"
    },
    {
      "inputs": [
        {
          "internalType": "address",
          "name": "_owner",
          "type": "address"
        }
      ],
      "name": "balanceOf",
      "outputs": [
        {
          "internalType": "uint256",
          "name": "",
          "type": "uint256"
        }
      ],
      "stateMutability": "view",
      "type": "function"
    },
    {
      "inputs": [
        {
          "internalType": "uint256",
          "name": "_tokenId",
          "type": "uint256"
        }
      ],
      "name": "getApproved",
      "outputs": [
        {
          "internalType": "address",
          "name": "",
          "type": "address"
        }
      ],
      "stateMutability": "view",
      "type": "function"
    },
    {
      "inputs": [
        {
          "internalType": "address",
          "name": "_owner",
          "type": "address"
        },
        {
          "internalType": "address",
          "name": "_operator",
          "type": "address"
        }
      ],
      "name": "isApprovedForAll",
      "outputs": [
        {
          "internalType": "bool",
          "name": "",
          "type": "bool"
        }
      ],
      "stateMutability": "view",
      "type": "function"
    },
    {
      "inputs": [],
      "name": "owner",
      "outputs": [
        {
          "internalType": "address",
          "name": "",
          "type": "address"
        }
      ],
      "stateMutability": "view",
      "type": "function"
    },
    {
      "inputs": [
        {
          "internalType": "uint256",
          "name": "_tokenId",
          "type": "uint256"
        }
      ],
      "name": "ownerOf",
      "outputs": [
        {
          "internalType": "address",
          "name": "_owner",
          "type": "address"
        }
      ],
      "stateMutability": "view",
      "type": "function"
    },
    {
      "inputs": [
        {
          "internalType": "address",
          "name": "_from",
          "type": "address"
        },
        {
          "internalType": "address",
          "name": "_to",
          "type": "address"
        },
        {
          "internalType": "uint256",
          "name": "_tokenId",
          "type": "uint256"
        }
      ],
      "name": "safeTransferFrom",
      "outputs": [],
      "stateMutability": "nonpayable",
      "type": "function"
    },
    {
      "inputs": [
        {
          "internalType": "address",
          "name": "_from",
          "type": "address"
        },
        {
          "internalType": "address",
          "name": "_to",
          "type": "address"
        },
        {
          "internalType": "uint256",
          "name": "_tokenId",
          "type": "uint256"
        },
        {
          "internalType": "bytes",
          "name": "_data",
          "type": "bytes"
        }
      ],
      "name": "safeTransferFrom",
      "outputs": [],
      "stateMutability": "nonpayable",
      "type": "function"
    },
    {
      "inputs": [
        {
          "internalType": "address",
          "name": "_operator",
          "type": "address"
        },
        {
          "internalType": "bool",
          "name": "_approved",
          "type": "bool"
        }
      ],
      "name": "setApprovalForAll",
      "outputs": [],
      "stateMutability": "nonpayable",
      "type": "function"
    },
    {
      "inputs": [
        {
          "internalType": "bytes4",
          "name": "_interfaceID",
          "type": "bytes4"
        }
      ],
      "name": "supportsInterface",
      "outputs": [
        {
          "internalType": "bool",
          "name": "",
          "type": "bool"
        }
      ],
      "stateMutability": "view",
      "type": "function"
    },
    {
      "inputs": [
        {
          "internalType": "uint256",
          "name": "_index",
          "type": "uint256"
        }
      ],
      "name": "tokenByIndex",
      "outputs": [
        {
          "internalType": "uint256",
          "name": "",
          "type": "uint256"
        }
      ],
      "stateMutability": "view",
      "type": "function"
    },
    {
      "inputs": [
        {
          "internalType": "address",
          "name": "_owner",
          "type": "address"
        },
        {
          "internalType": "uint256",
          "name": "_index",
          "type": "uint256"
        }
      ],
      "name": "tokenOfOwnerByIndex",
      "outputs": [
        {
          "internalType": "uint256",
          "name": "",
          "type": "uint256"
        }
      ],
      "stateMutability": "view",
      "type": "function"
    },
    {
      "inputs": [],
      "name": "totalSupply",
      "outputs": [
        {
          "internalType": "uint256",
          "name": "",
          "type": "uint256"
        }
      ],
      "stateMutability": "view",
      "type": "function"
    },
    {
      "inputs": [
        {
          "internalType": "address",
          "name": "_from",
          "type": "address"
        },
        {
          "internalType": "address",
          "name": "_to",
          "type": "address"
        },
        {
          "internalType": "uint256",
          "name": "_tokenId",
          "type": "uint256"
        }
      ],
      "name": "transferFrom",
      "outputs": [],
      "stateMutability": "nonpayable",
      "type": "function"
    },
    {
      "inputs": [
        {
          "internalType": "address",
          "name": "_newOwner",
          "type": "address"
        }
      ],
      "name": "transferOwnership",
      "outputs": [],
      "stateMutability": "nonpayable",
      "type": "function"
    },
    {
      "inputs": [
        {
          "internalType": "address",
          "name": "_to",
          "type": "address"
        },
        {
          "internalType": "uint256",
          "name": "_tokenId",
          "type": "uint256"
        }
      ],
      "name": "mint",
      "outputs": [],
      "stateMutability": "nonpayable",
      "type": "function"
    },
    {
      "inputs": [
        {
          "internalType": "uint256",
          "name": "_tokenId",
          "type": "uint256"
        }
      ],
      "name": "burn",
      "outputs": [],
      "stateMutability": "nonpayable",
      "type": "function"
    }
  ],
  "bytecode": "0x608060405234801561001057600080fd5b5060016000806301ffc9a760e01b7bffffffffffffffffffffffffffffffffffffffffffffffffffffffff1916815260200190815260200160002060006101000a81548160ff02191690831515021790555060016000806380ac58cd60e01b7bffffffffffffffffffffffffffffffffffffffffffffffffffffffff1916815260200190815260200160002060006101000a81548160ff021916908315150217905550600160008063780e9d6360e01b7bffffffffffffffffffffffffffffffffffffffffffffffffffffffff1916815260200190815260200160002060006101000a81548160ff02191690831515021790555033600960006101000a81548173ffffffffffffffffffffffffffffffffffffffff021916908373ffffffffffffffffffffffffffffffffffffffff160217905550612f92806101546000396000f3fe608060405234801561001057600080fd5b50600436106101215760003560e01c80634f6ccce7116100ad578063a22cb46511610071578063a22cb4651461032c578063b88d4fde14610348578063e985e9c514610364578063f2fde38b14610394578063f3fe3bc3146103b057610121565b80634f6ccce7146102605780636352211e1461029057806370a08231146102c0578063860d248a146102f05780638da5cb5b1461030e57610121565b806323b872dd116100f457806323b872dd146101c05780632f745c59146101dc57806340c10f191461020c57806342842e0e1461022857806342966c681461024457610121565b806301ffc9a714610126578063081812fc14610156578063095ea7b31461018657806318160ddd146101a2575b600080fd5b610140600480360381019061013b9190612bd4565b6103ce565b60405161014d9190612d55565b60405180910390f35b610170600480360381019061016b9190612c26565b610435565b60405161017d9190612cee565b60405180910390f35b6101a0600480360381019061019b9190612b98565b610550565b005b6101aa610933565b6040516101b79190612d92565b60405180910390f35b6101da60048036038101906101d59190612a8d565b610940565b005b6101f660048036038101906101f19190612b98565b610d92565b6040516102039190612d92565b60405180910390f35b61022660048036038101906102219190612b98565b610edb565b005b610242600480360381019061023d9190612a8d565b610fb2565b005b61025e60048036038101906102599190612c26565b610fd2565b005b61027a60048036038101906102759190612c26565b6110a7565b6040516102879190612d92565b60405180910390f35b6102aa60048036038101906102a59190612c26565b611175565b6040516102b79190612cee565b60405180910390f35b6102da60048036038101906102d59190612a28565b61125b565b6040516102e79190612d92565b60405180910390f35b6102f8611315565b6040516103059190612d70565b60405180910390f35b61031661134e565b6040516103239190612cee565b60405180910390f35b61034660048036038101906103419190612b5c565b611374565b005b610362600480360381019061035d9190612adc565b611471565b005b61037e60048036038101906103799190612a51565b6114c8565b60405161038b9190612d55565b60405180910390f35b6103ae60048036038101906103a99190612a28565b61155c565b005b6103b861178e565b6040516103c59190612d70565b60405180910390f35b6000806000837bffffffffffffffffffffffffffffffffffffffffffffffffffffffff19167bffffffffffffffffffffffffffffffffffffffffffffffffffffffff1916815260200190815260200160002060009054906101000a900460ff169050919050565b600081600073ffffffffffffffffffffffffffffffffffffffff166001600083815260200190815260200160002060009054906101000a900473ffffffffffffffffffffffffffffffffffffffff1673ffffffffffffffffffffffffffffffffffffffff1614156040518060400160405280600681526020017f303033303032000000000000000000000000000000000000000000000000000081525090610513576040517f08c379a000000000000000000000000000000000000000000000000000000000815260040161050a9190612d70565b60405180910390fd5b506002600084815260200190815260200160002060009054906101000a900473ffffffffffffffffffffffffffffffffffffffff16915050919050565b8060006001600083815260200190815260200160002060009054906101000a900473ffffffffffffffffffffffffffffffffffffffff1690503373ffffffffffffffffffffffffffffffffffffffff168173ffffffffffffffffffffffffffffffffffffffff1614806106495750600460008273ffffffffffffffffffffffffffffffffffffffff1673ffffffffffffffffffffffffffffffffffffffff16815260200190815260200160002060003373ffffffffffffffffffffffffffffffffffffffff1673ffffffffffffffffffffffffffffffffffffffff16815260200190815260200160002060009054906101000a900460ff165b6040518060400160405280600681526020017f3030333030330000000000000000000000000000000000000000000000000000815250906106c0576040517f08c379a00000000000000000000000000000000000000000000000000000000081526004016106b79190612d70565b60405180910390fd5b5082600073ffffffffffffffffffffffffffffffffffffffff166001600083815260200190815260200160002060009054906101000a900473ffffffffffffffffffffffffffffffffffffffff1673ffffffffffffffffffffffffffffffffffffffff1614156040518060400160405280600681526020017f30303330303200000000000000000000000000000000000000000000000000008152509061079d576040517f08c379a00000000000000000000000000000000000000000000000000000000081526004016107949190612d70565b60405180910390fd5b5060006001600086815260200190815260200160002060009054906101000a900473ffffffffffffffffffffffffffffffffffffffff1690508073ffffffffffffffffffffffffffffffffffffffff168673ffffffffffffffffffffffffffffffffffffffff1614156040518060400160405280600681526020017f30303330303800000000000000000000000000000000000000000000000000008152509061087d576040517f08c379a00000000000000000000000000000000000000000000000000000000081526004016108749190612d70565b60405180910390fd5b50856002600087815260200190815260200160002060006101000a81548173ffffffffffffffffffffffffffffffffffffffff021916908373ffffffffffffffffffffffffffffffffffffffff160217905550848673ffffffffffffffffffffffffffffffffffffffff168273ffffffffffffffffffffffffffffffffffffffff167f8c5be1e5ebec7d5bd14f71427d1e84f3dd0314c0f7b2291e5b200ac8c7c3b92560405160405180910390a4505050505050565b6000600580549050905090565b8060006001600083815260200190815260200160002060009054906101000a900473ffffffffffffffffffffffffffffffffffffffff1690503373ffffffffffffffffffffffffffffffffffffffff168173ffffffffffffffffffffffffffffffffffffffff161480610a1157503373ffffffffffffffffffffffffffffffffffffffff166002600084815260200190815260200160002060009054906101000a900473ffffffffffffffffffffffffffffffffffffffff1673ffffffffffffffffffffffffffffffffffffffff16145b80610aa25750600460008273ffffffffffffffffffffffffffffffffffffffff1673ffffffffffffffffffffffffffffffffffffffff16815260200190815260200160002060003373ffffffffffffffffffffffffffffffffffffffff1673ffffffffffffffffffffffffffffffffffffffff16815260200190815260200160002060009054906101000a900460ff165b6040518060400160405280600681526020017f303033303034000000000000000000000000000000000000000000000000000081525090610b19576040517f08c379a0000000000000000000000000000000000000000000000000000000008152600401610b109190612d70565b60405180910390fd5b5082600073ffffffffffffffffffffffffffffffffffffffff166001600083815260200190815260200160002060009054906101000a900473ffffffffffffffffffffffffffffffffffffffff1673ffffffffffffffffffffffffffffffffffffffff1614156040518060400160405280600681526020017f303033303032000000000000000000000000000000000000000000000000000081525090610bf6576040517f08c379a0000000000000000000000000000000000000000000000000000000008152600401610bed9190612d70565b60405180910390fd5b5060006001600086815260200190815260200160002060009054906101000a900473ffffffffffffffffffffffffffffffffffffffff1690508673ffffffffffffffffffffffffffffffffffffffff168173ffffffffffffffffffffffffffffffffffffffff16146040518060400160405280600681526020017f303033303037000000000000000000000000000000000000000000000000000081525090610cd5576040517f08c379a0000000000000000000000000000000000000000000000000000000008152600401610ccc9190612d70565b60405180910390fd5b50600073ffffffffffffffffffffffffffffffffffffffff168673ffffffffffffffffffffffffffffffffffffffff1614156040518060400160405280600681526020017f303033303031000000000000000000000000000000000000000000000000000081525090610d7e576040517f08c379a0000000000000000000000000000000000000000000000000000000008152600401610d759190612d70565b60405180910390fd5b50610d8986866117c7565b50505050505050565b6000600760008473ffffffffffffffffffffffffffffffffffffffff1673ffffffffffffffffffffffffffffffffffffffff1681526020019081526020016000208054905082106040518060400160405280600681526020017f303035303037000000000000000000000000000000000000000000000000000081525090610e50576040517f08c379a0000000000000000000000000000000000000000000000000000000008152600401610e479190612d70565b60405180910390fd5b50600760008473ffffffffffffffffffffffffffffffffffffffff1673ffffffffffffffffffffffffffffffffffffffff1681526020019081526020016000208281548110610ec8577f4e487b7100000000000000000000000000000000000000000000000000000000600052603260045260246000fd5b9060005260206000200154905092915050565b600960009054906101000a900473ffffffffffffffffffffffffffffffffffffffff1673ffffffffffffffffffffffffffffffffffffffff163373ffffffffffffffffffffffffffffffffffffffff16146040518060400160405280600681526020017f303138303031000000000000000000000000000000000000000000000000000081525090610fa3576040517f08c379a0000000000000000000000000000000000000000000000000000000008152600401610f9a9190612d70565b60405180910390fd5b50610fae828261187c565b5050565b610fcd838383604051806020016040528060008152506118dc565b505050565b600960009054906101000a900473ffffffffffffffffffffffffffffffffffffffff1673ffffffffffffffffffffffffffffffffffffffff163373ffffffffffffffffffffffffffffffffffffffff16146040518060400160405280600681526020017f30313830303100000000000000000000000000000000000000000000000000008152509061109a576040517f08c379a00000000000000000000000000000000000000000000000000000000081526004016110919190612d70565b60405180910390fd5b506110a481611eaa565b50565b600060058054905082106040518060400160405280600681526020017f303035303037000000000000000000000000000000000000000000000000000081525090611128576040517f08c379a000000000000000000000000000000000000000000000000000000000815260040161111f9190612d70565b60405180910390fd5b5060058281548110611163577f4e487b7100000000000000000000000000000000000000000000000000000000600052603260045260246000fd5b90600052602060002001549050919050565b60006001600083815260200190815260200160002060009054906101000a900473ffffffffffffffffffffffffffffffffffffffff169050600073ffffffffffffffffffffffffffffffffffffffff168173ffffffffffffffffffffffffffffffffffffffff1614156040518060400160405280600681526020017f303033303032000000000000000000000000000000000000000000000000000081525090611255576040517f08c379a000000000000000000000000000000000000000000000000000000000815260040161124c9190612d70565b60405180910390fd5b50919050565b60008073ffffffffffffffffffffffffffffffffffffffff168273ffffffffffffffffffffffffffffffffffffffff1614156040518060400160405280600681526020017f303033303031000000000000000000000000000000000000000000000000000081525090611304576040517f08c379a00000000000000000000000000000000000000000000000000000000081526004016112fb9190612d70565b60405180910390fd5b5061130e82611ff8565b9050919050565b6040518060400160405280600681526020017f303138303032000000000000000000000000000000000000000000000000000081525081565b600960009054906101000a900473ffffffffffffffffffffffffffffffffffffffff1681565b80600460003373ffffffffffffffffffffffffffffffffffffffff1673ffffffffffffffffffffffffffffffffffffffff16815260200190815260200160002060008473ffffffffffffffffffffffffffffffffffffffff1673ffffffffffffffffffffffffffffffffffffffff16815260200190815260200160002060006101000a81548160ff0219169083151502179055508173ffffffffffffffffffffffffffffffffffffffff163373ffffffffffffffffffffffffffffffffffffffff167f17307eab39ab6107e8899845ad3d59bd9653f200f220920489ca2b5937696c31836040516114659190612d55565b60405180910390a35050565b6114c185858585858080601f016020809104026020016040519081016040528093929190818152602001838380828437600081840152601f19601f820116905080830192505050505050506118dc565b5050505050565b6000600460008473ffffffffffffffffffffffffffffffffffffffff1673ffffffffffffffffffffffffffffffffffffffff16815260200190815260200160002060008373ffffffffffffffffffffffffffffffffffffffff1673ffffffffffffffffffffffffffffffffffffffff16815260200190815260200160002060009054906101000a900460ff16905092915050565b600960009054906101000a900473ffffffffffffffffffffffffffffffffffffffff1673ffffffffffffffffffffffffffffffffffffffff163373ffffffffffffffffffffffffffffffffffffffff16146040518060400160405280600681526020017f303138303031000000000000000000000000000000000000000000000000000081525090611624576040517f08c379a000000000000000000000000000000000000000000000000000000000815260040161161b9190612d70565b60405180910390fd5b50600073ffffffffffffffffffffffffffffffffffffffff168173ffffffffffffffffffffffffffffffffffffffff1614156040518060400160405280600681526020017f3031383030320000000000000000000000000000000000000000000000000000815250906116cd576040517f08c379a00000000000000000000000000000000000000000000000000000000081526004016116c49190612d70565b60405180910390fd5b508073ffffffffffffffffffffffffffffffffffffffff16600960009054906101000a900473ffffffffffffffffffffffffffffffffffffffff1673ffffffffffffffffffffffffffffffffffffffff167f8be0079c531659141344cd1fd0a4f28419497f9722a3daafe3b4186f6b6457e060405160405180910390a380600960006101000a81548173ffffffffffffffffffffffffffffffffffffffff021916908373ffffffffffffffffffffffffffffffffffffffff16021790555050565b6040518060400160405280600681526020017f303138303031000000000000000000000000000000000000000000000000000081525081565b60006001600083815260200190815260200160002060009054906101000a900473ffffffffffffffffffffffffffffffffffffffff16905061180882612044565b611812818361207d565b61181c83836123b6565b818373ffffffffffffffffffffffffffffffffffffffff168273ffffffffffffffffffffffffffffffffffffffff167fddf252ad1be2c89b69c2b068fc378daa952ba7f163c4a11628f55a4df523b3ef60405160405180910390a4505050565b61188682826125b3565b600581908060018154018082558091505060019003906000526020600020016000909190919091505560016005805490506118c19190612de5565b60066000838152602001908152602001600020819055505050565b8160006001600083815260200190815260200160002060009054906101000a900473ffffffffffffffffffffffffffffffffffffffff1690503373ffffffffffffffffffffffffffffffffffffffff168173ffffffffffffffffffffffffffffffffffffffff1614806119ad57503373ffffffffffffffffffffffffffffffffffffffff166002600084815260200190815260200160002060009054906101000a900473ffffffffffffffffffffffffffffffffffffffff1673ffffffffffffffffffffffffffffffffffffffff16145b80611a3e5750600460008273ffffffffffffffffffffffffffffffffffffffff1673ffffffffffffffffffffffffffffffffffffffff16815260200190815260200160002060003373ffffffffffffffffffffffffffffffffffffffff1673ffffffffffffffffffffffffffffffffffffffff16815260200190815260200160002060009054906101000a900460ff165b6040518060400160405280600681526020017f303033303034000000000000000000000000000000000000000000000000000081525090611ab5576040517f08c379a0000000000000000000000000000000000000000000000000000000008152600401611aac9190612d70565b60405180910390fd5b5083600073ffffffffffffffffffffffffffffffffffffffff166001600083815260200190815260200160002060009054906101000a900473ffffffffffffffffffffffffffffffffffffffff1673ffffffffffffffffffffffffffffffffffffffff1614156040518060400160405280600681526020017f303033303032000000000000000000000000000000000000000000000000000081525090611b92576040517f08c379a0000000000000000000000000000000000000000000000000000000008152600401611b899190612d70565b60405180910390fd5b5060006001600087815260200190815260200160002060009054906101000a900473ffffffffffffffffffffffffffffffffffffffff1690508773ffffffffffffffffffffffffffffffffffffffff168173ffffffffffffffffffffffffffffffffffffffff16146040518060400160405280600681526020017f303033303037000000000000000000000000000000000000000000000000000081525090611c71576040517f08c379a0000000000000000000000000000000000000000000000000000000008152600401611c689190612d70565b60405180910390fd5b50600073ffffffffffffffffffffffffffffffffffffffff168773ffffffffffffffffffffffffffffffffffffffff1614156040518060400160405280600681526020017f303033303031000000000000000000000000000000000000000000000000000081525090611d1a576040517f08c379a0000000000000000000000000000000000000000000000000000000008152600401611d119190612d70565b60405180910390fd5b50611d2587876117c7565b611d448773ffffffffffffffffffffffffffffffffffffffff166127a1565b15611ea05760008773ffffffffffffffffffffffffffffffffffffffff1663150b7a02338b8a8a6040518563ffffffff1660e01b8152600401611d8a9493929190612d09565b602060405180830381600087803b158015611da457600080fd5b505af1158015611db8573d6000803e3d6000fd5b505050506040513d601f19601f82011682018060405250810190611ddc9190612bfd565b905063150b7a0260e01b7bffffffffffffffffffffffffffffffffffffffffffffffffffffffff1916817bffffffffffffffffffffffffffffffffffffffffffffffffffffffff1916146040518060400160405280600681526020017f303033303035000000000000000000000000000000000000000000000000000081525090611e9d576040517f08c379a0000000000000000000000000000000000000000000000000000000008152600401611e949190612d70565b60405180910390fd5b50505b5050505050505050565b611eb3816127ec565b60006006600083815260200190815260200160002054905060006001600580549050611edf9190612de5565b9050600060058281548110611f1d577f4e487b7100000000000000000000000000000000000000000000000000000000600052603260045260246000fd5b906000526020600020015490508060058481548110611f65577f4e487b7100000000000000000000000000000000000000000000000000000000600052603260045260246000fd5b90600052602060002001819055506005805480611fab577f4e487b7100000000000000000000000000000000000000000000000000000000600052603160045260246000fd5b600190038181906000526020600020016000905590558260066000838152602001908152602001600020819055506000600660008681526020019081526020016000208190555050505050565b6000600760008373ffffffffffffffffffffffffffffffffffffffff1673ffffffffffffffffffffffffffffffffffffffff168152602001908152602001600020805490509050919050565b6002600082815260200190815260200160002060006101000a81549073ffffffffffffffffffffffffffffffffffffffff021916905550565b8173ffffffffffffffffffffffffffffffffffffffff166001600083815260200190815260200160002060009054906101000a900473ffffffffffffffffffffffffffffffffffffffff1673ffffffffffffffffffffffffffffffffffffffff16146040518060400160405280600681526020017f303033303037000000000000000000000000000000000000000000000000000081525090612156576040517f08c379a000000000000000000000000000000000000000000000000000000000815260040161214d9190612d70565b60405180910390fd5b506001600082815260200190815260200160002060006101000a81549073ffffffffffffffffffffffffffffffffffffffff021916905560006008600083815260200190815260200160002054905060006001600760008673ffffffffffffffffffffffffffffffffffffffff1673ffffffffffffffffffffffffffffffffffffffff168152602001908152602001600020805490506121f69190612de5565b9050818114612325576000600760008673ffffffffffffffffffffffffffffffffffffffff1673ffffffffffffffffffffffffffffffffffffffff1681526020019081526020016000208281548110612278577f4e487b7100000000000000000000000000000000000000000000000000000000600052603260045260246000fd5b9060005260206000200154905080600760008773ffffffffffffffffffffffffffffffffffffffff1673ffffffffffffffffffffffffffffffffffffffff16815260200190815260200160002084815481106122fd577f4e487b7100000000000000000000000000000000000000000000000000000000600052603260045260246000fd5b9060005260206000200181905550826008600083815260200190815260200160002081905550505b600760008573ffffffffffffffffffffffffffffffffffffffff1673ffffffffffffffffffffffffffffffffffffffff16815260200190815260200160002080548061239a577f4e487b7100000000000000000000000000000000000000000000000000000000600052603160045260246000fd5b6001900381819060005260206000200160009055905550505050565b600073ffffffffffffffffffffffffffffffffffffffff166001600083815260200190815260200160002060009054906101000a900473ffffffffffffffffffffffffffffffffffffffff1673ffffffffffffffffffffffffffffffffffffffff16146040518060400160405280600681526020017f303033303036000000000000000000000000000000000000000000000000000081525090612490576040517f08c379a00000000000000000000000000000000000000000000000000000000081526004016124879190612d70565b60405180910390fd5b50816001600083815260200190815260200160002060006101000a81548173ffffffffffffffffffffffffffffffffffffffff021916908373ffffffffffffffffffffffffffffffffffffffff160217905550600760008373ffffffffffffffffffffffffffffffffffffffff1673ffffffffffffffffffffffffffffffffffffffff1681526020019081526020016000208190806001815401808255809150506001900390600052602060002001600090919091909150556001600760008473ffffffffffffffffffffffffffffffffffffffff1673ffffffffffffffffffffffffffffffffffffffff168152602001908152602001600020805490506125989190612de5565b60086000838152602001908152602001600020819055505050565b600073ffffffffffffffffffffffffffffffffffffffff168273ffffffffffffffffffffffffffffffffffffffff1614156040518060400160405280600681526020017f30303330303100000000000000000000000000000000000000000000000000008152509061265b576040517f08c379a00000000000000000000000000000000000000000000000000000000081526004016126529190612d70565b60405180910390fd5b50600073ffffffffffffffffffffffffffffffffffffffff166001600083815260200190815260200160002060009054906101000a900473ffffffffffffffffffffffffffffffffffffffff1673ffffffffffffffffffffffffffffffffffffffff16146040518060400160405280600681526020017f303033303036000000000000000000000000000000000000000000000000000081525090612736576040517f08c379a000000000000000000000000000000000000000000000000000000000815260040161272d9190612d70565b60405180910390fd5b5061274182826123b6565b808273ffffffffffffffffffffffffffffffffffffffff16600073ffffffffffffffffffffffffffffffffffffffff167fddf252ad1be2c89b69c2b068fc378daa952ba7f163c4a11628f55a4df523b3ef60405160405180910390a45050565b60008060007fc5d2460186f7233c927e7db2dcc703c0e500b653ca82273b7bfad8045d85a47060001b9050833f91506000801b82141580156127e35750808214155b92505050919050565b80600073ffffffffffffffffffffffffffffffffffffffff166001600083815260200190815260200160002060009054906101000a900473ffffffffffffffffffffffffffffffffffffffff1673ffffffffffffffffffffffffffffffffffffffff1614156040518060400160405280600681526020017f3030333030320000000000000000000000000000000000000000000000000000815250906128c8576040517f08c379a00000000000000000000000000000000000000000000000000000000081526004016128bf9190612d70565b60405180910390fd5b5060006001600084815260200190815260200160002060009054906101000a900473ffffffffffffffffffffffffffffffffffffffff16905061290a83612044565b612914818461207d565b82600073ffffffffffffffffffffffffffffffffffffffff168273ffffffffffffffffffffffffffffffffffffffff167fddf252ad1be2c89b69c2b068fc378daa952ba7f163c4a11628f55a4df523b3ef60405160405180910390a4505050565b60008135905061298481612f00565b92915050565b60008135905061299981612f17565b92915050565b6000813590506129ae81612f2e565b92915050565b6000815190506129c381612f2e565b92915050565b60008083601f8401126129db57600080fd5b8235905067ffffffffffffffff8111156129f457600080fd5b602083019150836001820283011115612a0c57600080fd5b9250929050565b600081359050612a2281612f45565b92915050565b600060208284031215612a3a57600080fd5b6000612a4884828501612975565b91505092915050565b60008060408385031215612a6457600080fd5b6000612a7285828601612975565b9250506020612a8385828601612975565b9150509250929050565b600080600060608486031215612aa257600080fd5b6000612ab086828701612975565b9350506020612ac186828701612975565b9250506040612ad286828701612a13565b9150509250925092565b600080600080600060808688031215612af457600080fd5b6000612b0288828901612975565b9550506020612b1388828901612975565b9450506040612b2488828901612a13565b935050606086013567ffffffffffffffff811115612b4157600080fd5b612b4d888289016129c9565b92509250509295509295909350565b60008060408385031215612b6f57600080fd5b6000612b7d85828601612975565b9250506020612b8e8582860161298a565b9150509250929050565b60008060408385031215612bab57600080fd5b6000612bb985828601612975565b9250506020612bca85828601612a13565b9150509250929050565b600060208284031215612be657600080fd5b6000612bf48482850161299f565b91505092915050565b600060208284031215612c0f57600080fd5b6000612c1d848285016129b4565b91505092915050565b600060208284031215612c3857600080fd5b6000612c4684828501612a13565b91505092915050565b612c5881612e19565b82525050565b612c6781612e2b565b82525050565b6000612c7882612dad565b612c828185612dc3565b9350612c92818560208601612e8d565b612c9b81612eef565b840191505092915050565b6000612cb182612db8565b612cbb8185612dd4565b9350612ccb818560208601612e8d565b612cd481612eef565b840191505092915050565b612ce881612e83565b82525050565b6000602082019050612d036000830184612c4f565b92915050565b6000608082019050612d1e6000830187612c4f565b612d2b6020830186612c4f565b612d386040830185612cdf565b8181036060830152612d4a8184612c6d565b905095945050505050565b6000602082019050612d6a6000830184612c5e565b92915050565b60006020820190508181036000830152612d8a8184612ca6565b905092915050565b6000602082019050612da76000830184612cdf565b92915050565b600081519050919050565b600081519050919050565b600082825260208201905092915050565b600082825260208201905092915050565b6000612df082612e83565b9150612dfb83612e83565b925082821015612e0e57612e0d612ec0565b5b828203905092915050565b6000612e2482612e63565b9050919050565b60008115159050919050565b60007fffffffff0000000000000000000000000000000000000000000000000000000082169050919050565b600073ffffffffffffffffffffffffffffffffffffffff82169050919050565b6000819050919050565b60005b83811015612eab578082015181840152602081019050612e90565b83811115612eba576000848401525b50505050565b7f4e487b7100000000000000000000000000000000000000000000000000000000600052601160045260246000fd5b6000601f19601f8301169050919050565b612f0981612e19565b8114612f1457600080fd5b50565b612f2081612e2b565b8114612f2b57600080fd5b50565b612f3781612e37565b8114612f4257600080fd5b50565b612f4e81612e83565b8114612f5957600080fd5b5056fea2646970667358221220e7995274aaa8effede53716afe06a1f29699028e8f01e87379624c67c1d87b1f64736f6c63430008000033",
  "immutableReferences": {},
  "source": "// SPDX-License-Identifier: MIT\r\npragma solidity ^0.8.0;\r\n\r\nimport \"../../contracts/tokens/nf-token-enumerable.sol\";\r\nimport \"../ownership/ownable.sol\";\r\n\r\n/**\r\n * @dev This is an example contract implementation of NFToken with enumerable extension.\r\n */\r\ncontract NFTokenEnumerableMock is\r\n  NFTokenEnumerable,\r\n  Ownable\r\n{\r\n\r\n  /**\r\n   * @dev Mints a new NFT.\r\n   * @param _to The address that will own the minted NFT.\r\n   * @param _tokenId of the NFT to be minted by the msg.sender.\r\n   */\r\n  function mint(\r\n    address _to,\r\n    uint256 _tokenId\r\n  )\r\n    external\r\n    onlyOwner\r\n  {\r\n    super._mint(_to, _tokenId);\r\n  }\r\n\r\n  /**\r\n   * @dev Removes a NFT from owner.\r\n   * @param _tokenId Which NFT we want to remove.\r\n   */\r\n  function burn(\r\n    uint256 _tokenId\r\n  )\r\n    external\r\n    onlyOwner\r\n  {\r\n    super._burn(_tokenId);\r\n  }\r\n\r\n}\r\n",
  "sourcePath": "C:\\Users\\mital\\OneDrive\\Desktop\\Mitali-hackx\\contracts\\contracts\\mocks\\nf-token-enumerable-mock.sol",
  "compiler": {
    "name": "solc",
    "version": "0.8.0+commit.c7dfd78e.Emscripten.clang"
  },
  "schemaVersion": "3.4.15",
  "updatedAt": "2023-10-03T18:06:21.198Z",
  "devdoc": {
    "details": "This is an example contract implementation of NFToken with enumerable extension.",
    "kind": "dev",
    "methods": {
      "approve(address,uint256)": {
        "details": "Set or reaffirm the approved address for an NFT. This function can be changed to payable.",
        "params": {
          "_approved": "Address to be approved for the given NFT ID.",
          "_tokenId": "ID of the token to be approved."
        }
      },
      "balanceOf(address)": {
        "details": "Returns the number of NFTs owned by `_owner`. NFTs assigned to the zero address are considered invalid, and this function throws for queries about the zero address.",
        "params": {
          "_owner": "Address for whom to query the balance."
        },
        "returns": {
          "_0": "Balance of _owner."
        }
      },
      "burn(uint256)": {
        "details": "Removes a NFT from owner.",
        "params": {
          "_tokenId": "Which NFT we want to remove."
        }
      },
      "getApproved(uint256)": {
        "details": "Get the approved address for a single NFT.",
        "params": {
          "_tokenId": "ID of the NFT to query the approval of."
        },
        "returns": {
          "_0": "Address that _tokenId is approved for."
        }
      },
      "isApprovedForAll(address,address)": {
        "details": "Checks if `_operator` is an approved operator for `_owner`.",
        "params": {
          "_operator": "The address that acts on behalf of the owner.",
          "_owner": "The address that owns the NFTs."
        },
        "returns": {
          "_0": "True if approved for all, false otherwise."
        }
      },
      "mint(address,uint256)": {
        "details": "Mints a new NFT.",
        "params": {
          "_to": "The address that will own the minted NFT.",
          "_tokenId": "of the NFT to be minted by the msg.sender."
        }
      },
      "ownerOf(uint256)": {
        "details": "Returns the address of the owner of the NFT. NFTs assigned to the zero address are considered invalid, and queries about them do throw.",
        "params": {
          "_tokenId": "The identifier for an NFT."
        },
        "returns": {
          "_owner": "Address of _tokenId owner."
        }
      },
      "safeTransferFrom(address,address,uint256)": {
        "details": "Transfers the ownership of an NFT from one address to another address. This function can be changed to payable.",
        "params": {
          "_from": "The current owner of the NFT.",
          "_to": "The new owner.",
          "_tokenId": "The NFT to transfer."
        }
      },
      "safeTransferFrom(address,address,uint256,bytes)": {
        "details": "Transfers the ownership of an NFT from one address to another address. This function can be changed to payable.",
        "params": {
          "_data": "Additional data with no specified format, sent in call to `_to`.",
          "_from": "The current owner of the NFT.",
          "_to": "The new owner.",
          "_tokenId": "The NFT to transfer."
        }
      },
      "setApprovalForAll(address,bool)": {
        "details": "Enables or disables approval for a third party (\"operator\") to manage all of `msg.sender`'s assets. It also emits the ApprovalForAll event.",
        "params": {
          "_approved": "True if the operators is approved, false to revoke approval.",
          "_operator": "Address to add to the set of authorized operators."
        }
      },
      "supportsInterface(bytes4)": {
        "details": "Function to check which interfaces are suported by this contract.",
        "params": {
          "_interfaceID": "Id of the interface."
        },
        "returns": {
          "_0": "True if _interfaceID is supported, false otherwise."
        }
      },
      "tokenByIndex(uint256)": {
        "details": "Returns NFT ID by its index.",
        "params": {
          "_index": "A counter less than `totalSupply()`."
        },
        "returns": {
          "_0": "Token id."
        }
      },
      "tokenOfOwnerByIndex(address,uint256)": {
        "details": "returns the n-th NFT ID from a list of owner's tokens.",
        "params": {
          "_index": "Index number representing n-th token in owner's list of tokens.",
          "_owner": "Token owner's address."
        },
        "returns": {
          "_0": "Token id."
        }
      },
      "totalSupply()": {
        "details": "Returns the count of all existing NFTokens.",
        "returns": {
          "_0": "Total supply of NFTs."
        }
      },
      "transferFrom(address,address,uint256)": {
        "details": "Throws unless `msg.sender` is the current owner, an authorized operator, or the approved address for this NFT. Throws if `_from` is not the current owner. Throws if `_to` is the zero address. Throws if `_tokenId` is not a valid NFT. This function can be changed to payable.",
        "params": {
          "_from": "The current owner of the NFT.",
          "_to": "The new owner.",
          "_tokenId": "The NFT to transfer."
        }
      },
      "transferOwnership(address)": {
        "details": "Allows the current owner to transfer control of the contract to a newOwner.",
        "params": {
          "_newOwner": "The address to transfer ownership to."
        }
      }
    },
    "version": 1
  },
  "userdoc": {
    "kind": "user",
    "methods": {
      "approve(address,uint256)": {
        "notice": "The zero address indicates there is no approved address. Throws unless `msg.sender` is the current NFT owner, or an authorized operator of the current owner."
      },
      "getApproved(uint256)": {
        "notice": "Throws if `_tokenId` is not a valid NFT."
      },
      "safeTransferFrom(address,address,uint256)": {
        "notice": "This works identically to the other function with an extra data parameter, except this function just sets data to \"\"."
      },
      "safeTransferFrom(address,address,uint256,bytes)": {
        "notice": "Throws unless `msg.sender` is the current owner, an authorized operator, or the approved address for this NFT. Throws if `_from` is not the current owner. Throws if `_to` is the zero address. Throws if `_tokenId` is not a valid NFT. When transfer is complete, this function checks if `_to` is a smart contract (code size > 0). If so, it calls `onERC721Received` on `_to` and throws if the return value is not `bytes4(keccak256(\"onERC721Received(address,uint256,bytes)\"))`."
      },
      "setApprovalForAll(address,bool)": {
        "notice": "This works even if sender doesn't own any tokens at the time."
      },
      "transferFrom(address,address,uint256)": {
        "notice": "The caller is responsible to confirm that `_to` is capable of receiving NFTs or else they may be permanently lost."
      }
    },
    "version": 1
  }
}